:020000040800F2
:10000000600600206D0100087501000877010008F6
:10001000790100087B0100087D0100080000000054
:100020000000000000000000000000007F01000848
:10003000810100080000000083010008850100081C
:100040008701000887010008870100088701000870
:100050008701000887010008870100088701000860
:100060008701000887010008870100088701000850
:100070008701000887010008870100088701000840
:100080008701000887010008870100088701000830
:100090008701000887010008870100088701000820
:1000A0008701000887010008870100088701000810
:1000B0008701000887010008870100088701000800
:1000C00087010008870100088701000887010008F0
:1000D00087010008870100088701000887010008E0
:1000E00087010008870100088701000800F002F876
:1000F00000F02CF80AA090E8000C82448344AAF196
:100100000107DA4501D100F021F8AFF2090EBAE893
:100110000F0013F0010F18BFFB1A43F0010318473B
:100120004C0700005C070000002300240025002687
:10013000103A28BF78C1FBD8520728BF30C148BF4A
:100140000B6070471FB51FBD10B510BD00F031F832
:100150001146FFF7F7FF00F051FB00F04FF803B432
:10016000FFF7F2FF03BC00F057F800000948804792
:1001700009480047FEE7FEE7FEE7FEE7FEE7FEE789
:10018000FEE7FEE7FEE7FEE704480549054A064BA1
:100190007047000095070008ED000008600000208F
:1001A0006006002060020020600200207047704757
:1001B0007047754600F02CF8AE4605006946534678
:1001C00020F00700854618B020B5FFF7DDFFBDE839
:1001D00020404FF000064FF000074FF000084FF0AE
:1001E000000BAC46ACE8C009ACE8C009ACE8C009FB
:1001F000ACE8C00921F007018D46704710B50446F0
:10020000AFF300802046BDE81040FFF7A8BF000014
:10021000004870470000002001491820ABBEFEE7EF
:10022000260002007047000082B00090009840F65F
:100230000001C4F2010188420AD1FFE741F218002F
:10024000C4F202000068C0F380008DF8070075E07A
:10025000009840F60041C4F2010188420AD1FFE74C
:1002600041F21800C4F202000068C0F3C0008DF82B
:10027000070063E0009841F20001C4F201018842E6
:100280000AD1FFE741F21800C4F202000068C0F38F
:1002900000108DF8070051E0009841F20041C4F2CF
:1002A000010188420AD1FFE741F21800C4F20200BE
:1002B0000068C0F340108DF807003FE0009841F659
:1002C0000001C4F2010188420AD1FFE741F218009F
:1002D000C4F202000068C0F380108DF807002DE022
:1002E000009841F60041C4F2010188420AD1FFE7BB
:1002F00041F21800C4F202000068C0F3C0108DF88B
:1003000007001BE0009842F20001C4F2010188429C
:100310000AD1FFE741F21800C4F202000068C0F3FE
:1003200000208DF8070009E0FFE7FFE7FFE7FFE7A0
:10033000FFE7FFE700208DF80700FFE79DF80700C3
:1003400002B0704780B586B0049003918DF80B2001
:100350008DF80A300398102804D3FFE700208DF8A9
:1003600017005AE00498FFF75FFF28B9FFE70498E9
:10037000012100F071F8FFE79DF80A0020BBFFE7BC
:100380009DF80B00022809D1FFE70399012000FA2C
:1003900001F20499C8689043C86014E09DF80B000E
:1003A00003280FD1FFE79DF80B0000F0FE008DF849
:1003B0000B000399012000FA01F20499C868104368
:1003C000C860FFE7FFE7FFE70398072803D8FFE7C8
:1003D0000498019006E003980838039004980430CC
:1003E0000190FFE7039881000F2000FA01F20199C4
:1003F0000868904308609DF80B109DF80A0040EAD9
:1004000081000399890000FA01F2019908681043FC
:10041000086001208DF81700FFE79DF8170006B06F
:1004200080BD000083B00290019100929DF8000011
:10043000C00730B1FFE701990120884002990861A7
:1004400007E0019800F1100101208840029908613D
:10045000FFE703B07047000082B001908DF80310F1
:100460009DF80300C00700287ED0FFE7019840F602
:100470000001C4F20101884209D1FFE741F21801ED
:10048000C4F20201086840F0040008606BE00198C3
:1004900040F60041C4F20101884209D1FFE741F270
:1004A0001801C4F20201086840F00800086059E031
:1004B000019841F20001C4F20101884209D1FFE72D
:1004C00041F21801C4F20201086840F0100008600F
:1004D00047E0019841F20041C4F20101884209D18C
:1004E000FFE741F21801C4F20201086840F0200061
:1004F000086035E0019841F60001C4F2010188422C
:1005000009D1FFE741F21801C4F20201086840F086
:100510004000086023E0019841F60041C4F2010167
:10052000884209D1FFE741F21801C4F202010868CC
:1005300040F08000086011E0019842F20001C4F22E
:100540000101884209D1FFE741F21801C4F202011A
:10055000086840F480700860FFE7FFE7FFE7FFE707
:10056000FFE7FFE7FFE77DE0019840F60001C4F2F6
:100570000101884209D1FFE741F21801C4F20201EA
:10058000086820F0040008606BE0019840F6004124
:10059000C4F20101884209D1FFE741F21801C4F217
:1005A0000201086820F00800086059E0019841F253
:1005B0000001C4F20101884209D1FFE741F21801AC
:1005C000C4F20201086820F01000086047E00198BA
:1005D00041F20041C4F20101884209D1FFE741F232
:1005E0001801C4F20201086820F02000086035E01C
:1005F000019841F60001C4F20101884209D1FFE7E8
:1006000041F21801C4F20201086820F040000860BD
:1006100023E0019841F60041C4F20101884209D16A
:10062000FFE741F21801C4F20201086820F08000DF
:10063000086011E0019842F20001C4F20101884211
:1006400009D1FFE741F21801C4F20201086820F461
:1006500080700860FFE7FFE7FFE7FFE7FFE7FFE7DE
:10066000FFE7FFE702B0704780B500F001F880BDFA
:1006700084B000200390029041F20001C4F2020114
:10068000086840F480300860FFE741F20000C4F2DF
:100690000200006800F400300290039801300390DB
:1006A000FFE702990020019039B9FFE70398B0F500
:1006B000A06018BF01200190FFE70198C007002843
:1006C000E3D1FFE741F20000C4F2020000688003BA
:1006D000002803D5FFE70120029002E000200290ED
:1006E000FFE70298012851D1FFE742F20001C4F26E
:1006F0000201086840F010000860086820F0070058
:100700000860086840F00200086041F20401C4F289
:10071000020100910868086008680860086840F4F1
:1007200080600860086820F47C100860086840F465
:10073000E810086041F20001C4F20201086840F0CC
:1007400080700860FFE741F20000C4F20200006818
:100750008001002801D4FFE7F5E741F20401C4F26B
:100760000201086820F003000860086840F00200F9
:100770000860FFE741F20400C4F20200006800F0E4
:100780000C00082801D0FFE7F4E700E0FFE704B021
:100790007047000080B541F20002C4F20202106806
:1007A00040F00100106041F20401C4F20201086847
:1007B0000023CFF6FF031840086010684FF6FF7360
:1007C000CFF6F66318401060106820F480201060A7
:1007D000086820F4FE00086041F20801C4F202013A
:1007E0004FF41F000860FFF73FFF4EF60851CEF2AE
:1007F00000014FF00060086080BD000080B586B049
:1008000000200490059040F60040C4F201000390DF
:100810000121FFF721FE0398049A0D210223FFF71F
:1008200091FDFFE740F60040C4F2010000900D2169
:1008300001910022FFF7F6FD42F21070029000F0E5
:1008400009F8009801990122FFF7ECFD029800F0E9
:1008500001F8E7E781B00090FFE7009820B1FFE7DB
:10086000009801380090F8E701B070477C08000854
:0C087000000000206006000028010008C5
:040000050800016D81
:00000001FF
